{
  "_format": "hh-sol-artifact-1",
  "contractName": "NFTMarket",
  "sourceName": "contracts/Market.sol",
  "abi": [
    {
      "inputs": [],
      "stateMutability": "nonpayable",
      "type": "constructor"
    },
    {
      "anonymous": false,
      "inputs": [
        {
          "indexed": true,
          "internalType": "address",
          "name": "owner",
          "type": "address"
        },
        {
          "indexed": true,
          "internalType": "address",
          "name": "approved",
          "type": "address"
        },
        {
          "indexed": true,
          "internalType": "uint256",
          "name": "tokenId",
          "type": "uint256"
        }
      ],
      "name": "Approval",
      "type": "event"
    },
    {
      "anonymous": false,
      "inputs": [
        {
          "indexed": true,
          "internalType": "address",
          "name": "owner",
          "type": "address"
        },
        {
          "indexed": true,
          "internalType": "address",
          "name": "operator",
          "type": "address"
        },
        {
          "indexed": false,
          "internalType": "bool",
          "name": "approved",
          "type": "bool"
        }
      ],
      "name": "ApprovalForAll",
      "type": "event"
    },
    {
      "anonymous": false,
      "inputs": [
        {
          "indexed": true,
          "internalType": "uint256",
          "name": "itemId",
          "type": "uint256"
        },
        {
          "indexed": true,
          "internalType": "address",
          "name": "nftContract",
          "type": "address"
        },
        {
          "indexed": true,
          "internalType": "uint256",
          "name": "tokenId",
          "type": "uint256"
        },
        {
          "indexed": false,
          "internalType": "address",
          "name": "seller",
          "type": "address"
        },
        {
          "indexed": false,
          "internalType": "address",
          "name": "owner",
          "type": "address"
        },
        {
          "indexed": false,
          "internalType": "uint256",
          "name": "price",
          "type": "uint256"
        },
        {
          "indexed": false,
          "internalType": "bool",
          "name": "sold",
          "type": "bool"
        }
      ],
      "name": "MarketItemCreated",
      "type": "event"
    },
    {
      "anonymous": false,
      "inputs": [
        {
          "indexed": true,
          "internalType": "address",
          "name": "from",
          "type": "address"
        },
        {
          "indexed": true,
          "internalType": "address",
          "name": "to",
          "type": "address"
        },
        {
          "indexed": true,
          "internalType": "uint256",
          "name": "tokenId",
          "type": "uint256"
        }
      ],
      "name": "Transfer",
      "type": "event"
    },
    {
      "inputs": [
        {
          "internalType": "address",
          "name": "to",
          "type": "address"
        },
        {
          "internalType": "uint256",
          "name": "tokenId",
          "type": "uint256"
        }
      ],
      "name": "approve",
      "outputs": [],
      "stateMutability": "nonpayable",
      "type": "function"
    },
    {
      "inputs": [
        {
          "internalType": "address",
          "name": "owner",
          "type": "address"
        }
      ],
      "name": "balanceOf",
      "outputs": [
        {
          "internalType": "uint256",
          "name": "",
          "type": "uint256"
        }
      ],
      "stateMutability": "view",
      "type": "function"
    },
    {
      "inputs": [
        {
          "internalType": "address",
          "name": "nftContract",
          "type": "address"
        },
        {
          "internalType": "uint256",
          "name": "tokenId",
          "type": "uint256"
        },
        {
          "internalType": "uint256",
          "name": "price",
          "type": "uint256"
        }
      ],
      "name": "createMarketItem",
      "outputs": [],
      "stateMutability": "payable",
      "type": "function"
    },
    {
      "inputs": [
        {
          "internalType": "address",
          "name": "nftContract",
          "type": "address"
        },
        {
          "internalType": "uint256",
          "name": "itemId",
          "type": "uint256"
        }
      ],
      "name": "createMarketSale",
      "outputs": [],
      "stateMutability": "payable",
      "type": "function"
    },
    {
      "inputs": [],
      "name": "fetchItemsCreated",
      "outputs": [
        {
          "components": [
            {
              "internalType": "uint256",
              "name": "itemId",
              "type": "uint256"
            },
            {
              "internalType": "address",
              "name": "nftContract",
              "type": "address"
            },
            {
              "internalType": "uint256",
              "name": "tokenId",
              "type": "uint256"
            },
            {
              "internalType": "address payable",
              "name": "seller",
              "type": "address"
            },
            {
              "internalType": "address payable",
              "name": "owner",
              "type": "address"
            },
            {
              "internalType": "uint256",
              "name": "price",
              "type": "uint256"
            },
            {
              "internalType": "bool",
              "name": "sold",
              "type": "bool"
            }
          ],
          "internalType": "struct NFTMarket.MarketItem[]",
          "name": "",
          "type": "tuple[]"
        }
      ],
      "stateMutability": "view",
      "type": "function"
    },
    {
      "inputs": [],
      "name": "fetchMarketItems",
      "outputs": [
        {
          "components": [
            {
              "internalType": "uint256",
              "name": "itemId",
              "type": "uint256"
            },
            {
              "internalType": "address",
              "name": "nftContract",
              "type": "address"
            },
            {
              "internalType": "uint256",
              "name": "tokenId",
              "type": "uint256"
            },
            {
              "internalType": "address payable",
              "name": "seller",
              "type": "address"
            },
            {
              "internalType": "address payable",
              "name": "owner",
              "type": "address"
            },
            {
              "internalType": "uint256",
              "name": "price",
              "type": "uint256"
            },
            {
              "internalType": "bool",
              "name": "sold",
              "type": "bool"
            }
          ],
          "internalType": "struct NFTMarket.MarketItem[]",
          "name": "",
          "type": "tuple[]"
        }
      ],
      "stateMutability": "view",
      "type": "function"
    },
    {
      "inputs": [],
      "name": "fetchMyNFTs",
      "outputs": [
        {
          "components": [
            {
              "internalType": "uint256",
              "name": "itemId",
              "type": "uint256"
            },
            {
              "internalType": "address",
              "name": "nftContract",
              "type": "address"
            },
            {
              "internalType": "uint256",
              "name": "tokenId",
              "type": "uint256"
            },
            {
              "internalType": "address payable",
              "name": "seller",
              "type": "address"
            },
            {
              "internalType": "address payable",
              "name": "owner",
              "type": "address"
            },
            {
              "internalType": "uint256",
              "name": "price",
              "type": "uint256"
            },
            {
              "internalType": "bool",
              "name": "sold",
              "type": "bool"
            }
          ],
          "internalType": "struct NFTMarket.MarketItem[]",
          "name": "",
          "type": "tuple[]"
        }
      ],
      "stateMutability": "view",
      "type": "function"
    },
    {
      "inputs": [
        {
          "internalType": "uint256",
          "name": "tokenId",
          "type": "uint256"
        }
      ],
      "name": "getApproved",
      "outputs": [
        {
          "internalType": "address",
          "name": "",
          "type": "address"
        }
      ],
      "stateMutability": "view",
      "type": "function"
    },
    {
      "inputs": [],
      "name": "getListingPrice",
      "outputs": [
        {
          "internalType": "uint256",
          "name": "",
          "type": "uint256"
        }
      ],
      "stateMutability": "view",
      "type": "function"
    },
    {
      "inputs": [
        {
          "internalType": "address",
          "name": "owner",
          "type": "address"
        },
        {
          "internalType": "address",
          "name": "operator",
          "type": "address"
        }
      ],
      "name": "isApprovedForAll",
      "outputs": [
        {
          "internalType": "bool",
          "name": "",
          "type": "bool"
        }
      ],
      "stateMutability": "view",
      "type": "function"
    },
    {
      "inputs": [],
      "name": "name",
      "outputs": [
        {
          "internalType": "string",
          "name": "",
          "type": "string"
        }
      ],
      "stateMutability": "view",
      "type": "function"
    },
    {
      "inputs": [
        {
          "internalType": "uint256",
          "name": "tokenId",
          "type": "uint256"
        }
      ],
      "name": "ownerOf",
      "outputs": [
        {
          "internalType": "address",
          "name": "",
          "type": "address"
        }
      ],
      "stateMutability": "view",
      "type": "function"
    },
    {
      "inputs": [
        {
          "internalType": "uint256",
          "name": "tokenId",
          "type": "uint256"
        },
        {
          "internalType": "uint256",
          "name": "price",
          "type": "uint256"
        }
      ],
      "name": "reSellTokens",
      "outputs": [],
      "stateMutability": "payable",
      "type": "function"
    },
    {
      "inputs": [
        {
          "internalType": "address",
          "name": "from",
          "type": "address"
        },
        {
          "internalType": "address",
          "name": "to",
          "type": "address"
        },
        {
          "internalType": "uint256",
          "name": "tokenId",
          "type": "uint256"
        }
      ],
      "name": "safeTransferFrom",
      "outputs": [],
      "stateMutability": "nonpayable",
      "type": "function"
    },
    {
      "inputs": [
        {
          "internalType": "address",
          "name": "from",
          "type": "address"
        },
        {
          "internalType": "address",
          "name": "to",
          "type": "address"
        },
        {
          "internalType": "uint256",
          "name": "tokenId",
          "type": "uint256"
        },
        {
          "internalType": "bytes",
          "name": "_data",
          "type": "bytes"
        }
      ],
      "name": "safeTransferFrom",
      "outputs": [],
      "stateMutability": "nonpayable",
      "type": "function"
    },
    {
      "inputs": [
        {
          "internalType": "address",
          "name": "operator",
          "type": "address"
        },
        {
          "internalType": "bool",
          "name": "approved",
          "type": "bool"
        }
      ],
      "name": "setApprovalForAll",
      "outputs": [],
      "stateMutability": "nonpayable",
      "type": "function"
    },
    {
      "inputs": [
        {
          "internalType": "bytes4",
          "name": "interfaceId",
          "type": "bytes4"
        }
      ],
      "name": "supportsInterface",
      "outputs": [
        {
          "internalType": "bool",
          "name": "",
          "type": "bool"
        }
      ],
      "stateMutability": "view",
      "type": "function"
    },
    {
      "inputs": [],
      "name": "symbol",
      "outputs": [
        {
          "internalType": "string",
          "name": "",
          "type": "string"
        }
      ],
      "stateMutability": "view",
      "type": "function"
    },
    {
      "inputs": [
        {
          "internalType": "uint256",
          "name": "tokenId",
          "type": "uint256"
        }
      ],
      "name": "tokenURI",
      "outputs": [
        {
          "internalType": "string",
          "name": "",
          "type": "string"
        }
      ],
      "stateMutability": "view",
      "type": "function"
    },
    {
      "inputs": [
        {
          "internalType": "address",
          "name": "from",
          "type": "address"
        },
        {
          "internalType": "address",
          "name": "to",
          "type": "address"
        },
        {
          "internalType": "uint256",
          "name": "tokenId",
          "type": "uint256"
        }
      ],
      "name": "transferFrom",
      "outputs": [],
      "stateMutability": "nonpayable",
      "type": "function"
    }
  ],
  "bytecode": "0x60806040526658d15e17628000600a553480156200001c57600080fd5b50604080518082018252600a815269139195081b585c9ad95d60b21b6020808301918252835180850190945260038452624e464d60e81b9084015281519192916200006a916000916200009b565b508051620000809060019060208401906200009b565b5050600980546001600160a01b03191633179055506200017e565b828054620000a99062000141565b90600052602060002090601f016020900481019282620000cd576000855562000118565b82601f10620000e857805160ff191683800117855562000118565b8280016001018555821562000118579182015b8281111562000118578251825591602001919060010190620000fb565b50620001269291506200012a565b5090565b5b808211156200012657600081556001016200012b565b600181811c908216806200015657607f821691505b602082108114156200017857634e487b7160e01b600052602260045260246000fd5b50919050565b61218e806200018e6000396000f3fe60806040526004361061011f5760003560e01c80636352211e116100a0578063b88d4fde11610064578063b88d4fde14610306578063c23b139e14610326578063c87b56dd14610339578063e985e9c514610359578063f064c32e146103a25761011f565b80636352211e1461027e57806370a082311461029e57806395d89b41146102be5780639dd31208146102d3578063a22cb465146102e65761011f565b806312e85585116100e757806312e85585146101f7578063202e37401461021657806323b872dd1461022b57806342842e0e1461024b57806358eb2df51461026b5761011f565b806301ffc9a71461012457806306fdde0314610159578063081812fc1461017b578063095ea7b3146101b35780630f08efe0146101d5575b600080fd5b34801561013057600080fd5b5061014461013f366004611dd1565b6103b7565b60405190151581526020015b60405180910390f35b34801561016557600080fd5b5061016e61040b565b6040516101509190611f6e565b34801561018757600080fd5b5061019b610196366004611e09565b61049d565b6040516001600160a01b039091168152602001610150565b3480156101bf57600080fd5b506101d36101ce366004611d76565b610537565b005b3480156101e157600080fd5b506101ea61064d565b6040516101509190611eda565b34801561020357600080fd5b50600a545b604051908152602001610150565b34801561022257600080fd5b506101ea6107f6565b34801561023757600080fd5b506101d3610246366004611c2c565b6109dd565b34801561025757600080fd5b506101d3610266366004611c2c565b610a0e565b6101d3610279366004611d9f565b610a29565b34801561028a57600080fd5b5061019b610299366004611e09565b610c67565b3480156102aa57600080fd5b506102086102b9366004611be0565b610cde565b3480156102ca57600080fd5b5061016e610d65565b6101d36102e1366004611e21565b610d74565b3480156102f257600080fd5b506101d3610301366004611d3c565b610eb1565b34801561031257600080fd5b506101d3610321366004611c67565b610ebc565b6101d3610334366004611d76565b610ef4565b34801561034557600080fd5b5061016e610354366004611e09565b6110b4565b34801561036557600080fd5b50610144610374366004611bfa565b6001600160a01b03918216600090815260056020908152604080832093909416825291909152205460ff1690565b3480156103ae57600080fd5b506101ea61123c565b60006001600160e01b031982166380ac58cd60e01b14806103e857506001600160e01b03198216635b5e139f60e01b145b8061040357506301ffc9a760e01b6001600160e01b03198316145b90505b919050565b60606000805461041a90612093565b80601f016020809104026020016040519081016040528092919081815260200182805461044690612093565b80156104935780601f1061046857610100808354040283529160200191610493565b820191906000526020600020905b81548152906001019060200180831161047657829003601f168201915b5050505050905090565b6000818152600260205260408120546001600160a01b031661051b5760405162461bcd60e51b815260206004820152602c60248201527f4552433732313a20617070726f76656420717565727920666f72206e6f6e657860448201526b34b9ba32b73a103a37b5b2b760a11b60648201526084015b60405180910390fd5b506000908152600460205260409020546001600160a01b031690565b600061054282610c67565b9050806001600160a01b0316836001600160a01b031614156105b05760405162461bcd60e51b815260206004820152602160248201527f4552433732313a20617070726f76616c20746f2063757272656e74206f776e656044820152603960f91b6064820152608401610512565b336001600160a01b03821614806105cc57506105cc8133610374565b61063e5760405162461bcd60e51b815260206004820152603860248201527f4552433732313a20617070726f76652063616c6c6572206973206e6f74206f7760448201527f6e6572206e6f7220617070726f76656420666f7220616c6c00000000000000006064820152608401610512565b6106488383611423565b505050565b6060600061065a60075490565b9050600061066760085490565b6007546106749190612050565b90506000808267ffffffffffffffff8111156106a057634e487b7160e01b600052604160045260246000fd5b6040519080825280602002602001820160405280156106d957816020015b6106c6611b8d565b8152602001906001900390816106be5790505b50905060005b848110156107ed576000600b816106f7846001612024565b81526020810191909152604001600020600401546001600160a01b031614156107db576000610727826001612024565b6000818152600b6020908152604091829020825160e0810184528154815260018201546001600160a01b039081169382019390935260028201549381019390935260038101548216606084015260048101549091166080830152600581015460a0830152600681015460ff16151560c08301528551929350918590879081106107c057634e487b7160e01b600052603260045260246000fd5b60209081029190910101526107d6600186612024565b945050505b806107e5816120ce565b9150506106df565b50935050505090565b6060600061080360075490565b905060008060005b838110156108665733600b6000610823846001612024565b81526020810191909152604001600020600401546001600160a01b0316141561085457610851600184612024565b92505b8061085e816120ce565b91505061080b565b5060008267ffffffffffffffff81111561089057634e487b7160e01b600052604160045260246000fd5b6040519080825280602002602001820160405280156108c957816020015b6108b6611b8d565b8152602001906001900390816108ae5790505b50905060005b848110156107ed5733600b60006108e7846001612024565b81526020810191909152604001600020600401546001600160a01b031614156109cb576000610917826001612024565b6000818152600b6020908152604091829020825160e0810184528154815260018201546001600160a01b039081169382019390935260028201549381019390935260038101548216606084015260048101549091166080830152600581015460a0830152600681015460ff16151560c08301528551929350918590879081106109b057634e487b7160e01b600052603260045260246000fd5b60209081029190910101526109c6600186612024565b945050505b806109d5816120ce565b9150506108cf565b6109e73382611491565b610a035760405162461bcd60e51b815260040161051290611fd3565b610648838383611584565b61064883838360405180602001604052806000815250610ebc565b60008111610a795760405162461bcd60e51b815260206004820152601c60248201527f5072696365206d757374206265206174206c65617374203120776569000000006044820152606401610512565b600a543414610ad65760405162461bcd60e51b8152602060048201526024808201527f5072696365206d75737420626520657175616c20746f206c697374696e6720706044820152637269636560e01b6064820152608401610512565b610ae4600780546001019055565b6000610aef60075490565b6040805160e0810182528281526001600160a01b0387811660208084018281528486018a8152336060870181815260006080890181815260a08a018e815260c08b018381528d8452600b909852918b902099518a55945160018a018054918a166001600160a01b0319928316179055935160028a015590516003890180549189169185169190911790559251600480890180549290981691909316179095559051600586015590516006909401805494151560ff199095169490941790935592516323b872dd60e01b81529182015230602482015260448101869052919250906323b872dd90606401600060405180830381600087803b158015610bf257600080fd5b505af1158015610c06573d6000803e3d6000fd5b505060408051338152600060208201819052818301879052606082015290518693506001600160a01b038816925084917f045dfa01dcba2b36aba1d3dc4a874f4b0c5d2fbeb8d2c4b34a7d88c8d8f929d1919081900360800190a450505050565b6000818152600260205260408120546001600160a01b0316806104035760405162461bcd60e51b815260206004820152602960248201527f4552433732313a206f776e657220717565727920666f72206e6f6e657869737460448201526832b73a103a37b5b2b760b91b6064820152608401610512565b60006001600160a01b038216610d495760405162461bcd60e51b815260206004820152602a60248201527f4552433732313a2062616c616e636520717565727920666f7220746865207a65604482015269726f206164647265737360b01b6064820152608401610512565b506001600160a01b031660009081526003602052604090205490565b60606001805461041a90612093565b6000828152600b60205260409020600401546001600160a01b03163314610df05760405162461bcd60e51b815260206004820152602a60248201527f4f6e6c79206974656d206f776e65722063616e20706572666f726d20746869736044820152691037b832b930ba34b7b760b11b6064820152608401610512565b600a543414610e545760405162461bcd60e51b815260206004820152602a60248201527f4c697374696e672070726963652073686f756c6420626520657175616c20746f6044820152692074686520707269636560b01b6064820152608401610512565b6000828152600b6020526040902060068101805460ff191690556003810180546001600160a01b0319908116331790915560048201805490911630179055600501819055610ea26008611724565b610ead333084611584565b5050565b610ead33838361177b565b610ec63383611491565b610ee25760405162461bcd60e51b815260040161051290611fd3565b610eee8484848461184a565b50505050565b6000818152600b602052604090206005810154600290910154348214610f84576040805162461bcd60e51b81526020600482015260248101919091527f506c65617365207375626d6974207468652061736b696e67207072696365206960448201527f6e206f7264657220746f20636f6d706c657465207468652070757263686173656064820152608401610512565b6000838152600b60205260408082206003015490516001600160a01b03909116913480156108fc02929091818181858888f19350505050158015610fcc573d6000803e3d6000fd5b506040516323b872dd60e01b8152306004820152336024820152604481018290526001600160a01b038516906323b872dd90606401600060405180830381600087803b15801561101b57600080fd5b505af115801561102f573d6000803e3d6000fd5b5050506000848152600b602052604090206004810180546001600160a01b03191633179055600601805460ff1916600117905550611071600880546001019055565b600954600a546040516001600160a01b039092169181156108fc0291906000818181858888f193505050501580156110ad573d6000803e3d6000fd5b5050505050565b6000818152600260205260409020546060906001600160a01b03166111355760405162461bcd60e51b815260206004820152603160248201527f45524337323155524953746f726167653a2055524920717565727920666f72206044820152703737b732bc34b9ba32b73a103a37b5b2b760791b6064820152608401610512565b6000828152600660205260408120805461114e90612093565b80601f016020809104026020016040519081016040528092919081815260200182805461117a90612093565b80156111c75780601f1061119c576101008083540402835291602001916111c7565b820191906000526020600020905b8154815290600101906020018083116111aa57829003601f168201915b5050505050905060006111e560408051602081019091526000815290565b90508051600014156111f957509050610406565b81511561122b578082604051602001611213929190611e6e565b60405160208183030381529060405292505050610406565b6112348461187d565b949350505050565b6060600061124960075490565b905060008060005b838110156112ac5733600b6000611269846001612024565b81526020810191909152604001600020600301546001600160a01b0316141561129a57611297600184612024565b92505b806112a4816120ce565b915050611251565b5060008267ffffffffffffffff8111156112d657634e487b7160e01b600052604160045260246000fd5b60405190808252806020026020018201604052801561130f57816020015b6112fc611b8d565b8152602001906001900390816112f45790505b50905060005b848110156107ed5733600b600061132d846001612024565b81526020810191909152604001600020600301546001600160a01b0316141561141157600061135d826001612024565b6000818152600b6020908152604091829020825160e0810184528154815260018201546001600160a01b039081169382019390935260028201549381019390935260038101548216606084015260048101549091166080830152600581015460a0830152600681015460ff16151560c08301528551929350918590879081106113f657634e487b7160e01b600052603260045260246000fd5b602090810291909101015261140c600186612024565b945050505b8061141b816120ce565b915050611315565b600081815260046020526040902080546001600160a01b0319166001600160a01b038416908117909155819061145882610c67565b6001600160a01b03167f8c5be1e5ebec7d5bd14f71427d1e84f3dd0314c0f7b2291e5b200ac8c7c3b92560405160405180910390a45050565b6000818152600260205260408120546001600160a01b031661150a5760405162461bcd60e51b815260206004820152602c60248201527f4552433732313a206f70657261746f7220717565727920666f72206e6f6e657860448201526b34b9ba32b73a103a37b5b2b760a11b6064820152608401610512565b600061151583610c67565b9050806001600160a01b0316846001600160a01b031614806115505750836001600160a01b03166115458461049d565b6001600160a01b0316145b8061123457506001600160a01b0380821660009081526005602090815260408083209388168352929052205460ff16611234565b826001600160a01b031661159782610c67565b6001600160a01b0316146115ff5760405162461bcd60e51b815260206004820152602960248201527f4552433732313a207472616e73666572206f6620746f6b656e2074686174206960448201526839903737ba1037bbb760b91b6064820152608401610512565b6001600160a01b0382166116615760405162461bcd60e51b8152602060048201526024808201527f4552433732313a207472616e7366657220746f20746865207a65726f206164646044820152637265737360e01b6064820152608401610512565b61166c600082611423565b6001600160a01b0383166000908152600360205260408120805460019290611695908490612050565b90915550506001600160a01b03821660009081526003602052604081208054600192906116c3908490612024565b909155505060008181526002602052604080822080546001600160a01b0319166001600160a01b0386811691821790925591518493918716917fddf252ad1be2c89b69c2b068fc378daa952ba7f163c4a11628f55a4df523b3ef91a4505050565b8054806117735760405162461bcd60e51b815260206004820152601b60248201527f436f756e7465723a2064656372656d656e74206f766572666c6f7700000000006044820152606401610512565b600019019055565b816001600160a01b0316836001600160a01b031614156117dd5760405162461bcd60e51b815260206004820152601960248201527f4552433732313a20617070726f766520746f2063616c6c6572000000000000006044820152606401610512565b6001600160a01b03838116600081815260056020908152604080832094871680845294825291829020805460ff191686151590811790915591519182527f17307eab39ab6107e8899845ad3d59bd9653f200f220920489ca2b5937696c31910160405180910390a3505050565b611855848484611584565b61186184848484611965565b610eee5760405162461bcd60e51b815260040161051290611f81565b6000818152600260205260409020546060906001600160a01b03166118fc5760405162461bcd60e51b815260206004820152602f60248201527f4552433732314d657461646174613a2055524920717565727920666f72206e6f60448201526e3732bc34b9ba32b73a103a37b5b2b760891b6064820152608401610512565b600061191360408051602081019091526000815290565b90506000815111611933576040518060200160405280600081525061195e565b8061193d84611a72565b60405160200161194e929190611e6e565b6040516020818303038152906040525b9392505050565b60006001600160a01b0384163b15611a6757604051630a85bd0160e11b81526001600160a01b0385169063150b7a02906119a9903390899088908890600401611e9d565b602060405180830381600087803b1580156119c357600080fd5b505af19250505080156119f3575060408051601f3d908101601f191682019092526119f091810190611ded565b60015b611a4d573d808015611a21576040519150601f19603f3d011682016040523d82523d6000602084013e611a26565b606091505b508051611a455760405162461bcd60e51b815260040161051290611f81565b805181602001fd5b6001600160e01b031916630a85bd0160e11b149050611234565b506001949350505050565b606081611a9757506040805180820190915260018152600360fc1b6020820152610406565b8160005b8115611ac15780611aab816120ce565b9150611aba9050600a8361203c565b9150611a9b565b60008167ffffffffffffffff811115611aea57634e487b7160e01b600052604160045260246000fd5b6040519080825280601f01601f191660200182016040528015611b14576020820181803683370190505b5090505b841561123457611b29600183612050565b9150611b36600a866120e9565b611b41906030612024565b60f81b818381518110611b6457634e487b7160e01b600052603260045260246000fd5b60200101906001600160f81b031916908160001a905350611b86600a8661203c565b9450611b18565b6040805160e081018252600080825260208201819052918101829052606081018290526080810182905260a0810182905260c081019190915290565b80356001600160a01b038116811461040657600080fd5b600060208284031215611bf1578081fd5b61195e82611bc9565b60008060408385031215611c0c578081fd5b611c1583611bc9565b9150611c2360208401611bc9565b90509250929050565b600080600060608486031215611c40578081fd5b611c4984611bc9565b9250611c5760208501611bc9565b9150604084013590509250925092565b60008060008060808587031215611c7c578081fd5b611c8585611bc9565b9350611c9360208601611bc9565b925060408501359150606085013567ffffffffffffffff80821115611cb6578283fd5b818701915087601f830112611cc9578283fd5b813581811115611cdb57611cdb612129565b604051601f8201601f19908116603f01168101908382118183101715611d0357611d03612129565b816040528281528a6020848701011115611d1b578586fd5b82602086016020830137918201602001949094529598949750929550505050565b60008060408385031215611d4e578182fd5b611d5783611bc9565b915060208301358015158114611d6b578182fd5b809150509250929050565b60008060408385031215611d88578182fd5b611d9183611bc9565b946020939093013593505050565b600080600060608486031215611db3578283fd5b611dbc84611bc9565b95602085013595506040909401359392505050565b600060208284031215611de2578081fd5b813561195e8161213f565b600060208284031215611dfe578081fd5b815161195e8161213f565b600060208284031215611e1a578081fd5b5035919050565b60008060408385031215611e33578182fd5b50508035926020909101359150565b60008151808452611e5a816020860160208601612067565b601f01601f19169290920160200192915050565b60008351611e80818460208801612067565b835190830190611e94818360208801612067565b01949350505050565b6001600160a01b0385811682528416602082015260408101839052608060608201819052600090611ed090830184611e42565b9695505050505050565b602080825282518282018190526000919060409081850190868401855b82811015611f6157815180518552868101516001600160a01b039081168887015286820151878701526060808301518216908701526080808301519091169086015260a0808201519086015260c09081015115159085015260e09093019290850190600101611ef7565b5091979650505050505050565b60006020825261195e6020830184611e42565b60208082526032908201527f4552433732313a207472616e7366657220746f206e6f6e20455243373231526560408201527131b2b4bb32b91034b6b83632b6b2b73a32b960711b606082015260800190565b60208082526031908201527f4552433732313a207472616e736665722063616c6c6572206973206e6f74206f6040820152701ddb995c881b9bdc88185c1c1c9bdd9959607a1b606082015260800190565b60008219821115612037576120376120fd565b500190565b60008261204b5761204b612113565b500490565b600082821015612062576120626120fd565b500390565b60005b8381101561208257818101518382015260200161206a565b83811115610eee5750506000910152565b600181811c908216806120a757607f821691505b602082108114156120c857634e487b7160e01b600052602260045260246000fd5b50919050565b60006000198214156120e2576120e26120fd565b5060010190565b6000826120f8576120f8612113565b500690565b634e487b7160e01b600052601160045260246000fd5b634e487b7160e01b600052601260045260246000fd5b634e487b7160e01b600052604160045260246000fd5b6001600160e01b03198116811461215557600080fd5b5056fea26469706673582212204a503158db76feb991908b67bb23a9b1bee98cbe199cc1754ec4ba36a34c275364736f6c63430008030033",
  "linkReferences": {},
  "deployedLinkReferences": {}
}